:1000000052C061C060C05FC05EC05DC05CC05BC00C
:100010005AC059C058C057C056C055C054C053C02C
:1000200052C051C050C00ACB40CB4BCBB6CEB5CEA0
:10003000B4CEB3CEB2CEB1CEB0CEAFCEAECEADCECC
:10004000ACCEABCEAACEA9CEA8CEA7CEA6CEA5CEFC
:10005000A4CEA3CEA2CEA1CEA0CE36CB4CCB52CB3B
:100060005FCB73CB88CBA6CBC0CBC7CBD4CBF4CBE9
:10007000F3CBC9CCC8CCC7CCC6CCDDCAF8CCF2CB4C
:1000800001CC9DCDA6CD7FCD7ECD7DCD7CCD7BCD54
:1000900084CE83CE82CE81CE80CE7FCE7ECE7DCEEC
:1000A000ACCDE3CD70CD11241FBECFE5D4E0DEBFD3
:1000B000CDBF13E0A0E6B0E001C01D92A43EB107A1
:1000C000E1F706D6DFCE9CCFFC01680F791F80E0F8
:1000D000E617F70739F09191980F981708F49F5F8A
:1000E000892FF6CF08955D9BFECF10BC89B980E2C1
:1000F0008BB988E18AB986E880BD5F9B02C08CB16C
:10010000FCCF08955D9BFECF8CB908955F9BFECF19
:100110008CB108950F931F93CF93DF938B01EC0164
:10012000080F191FC017D10719F08991EBDFFACF1B
:10013000DF91CF911F910F910895CF93FC019C0106
:10014000260F371F50E0C091DC03A0B3A071B0E0D0
:10015000A417B50789F4A0B3A47EAC130FC05F9BAE
:10016000F4CFCCB1E217F30729F4AEDFC81741F0A2
:1001700080E807C0C193E7CF81E003C082E001C0FF
:1001800080E0CF910895CF93DF931F92CDB7DEB774
:1001900040E1D3DF898391D58981882321F08EE4E2
:1001A000B1DF8FEF03C081E4ADDF80E00F90DF911E
:1001B000CF910895CF93DF93EC017DD583E4A2DF47
:1001C00078D5BE0186EC92E0A5DFBE0186EC92E018
:1001D0007BDFDF91CF9196CFCF93839916C0AC98F8
:1001E000882379F0C0E16091C2027091C3028091CE
:1001F000C4029091C50283D2882351F0C15099F76F
:1002000006C081E08093C60306C08FEF05C0FFCF14
:100210001092C603AC9A80E0CF9108958091C603F6
:10022000882319F081E0D8DFFBCF0895CF92DF92C9
:10023000EF92FF92CF936B017C018091C20290916B
:10024000C302A091C402B091C502C816D906EA063D
:10025000FB0699F0E3DFC0E0C701B6012ED2C15022
:10026000882319F0C111F8CFFFCFC092C202D092FB
:10027000C302E092C402F092C502CF91FF90EF90CA
:10028000DF90CF900895CF93DF93EC018091D3035B
:100290009091D403C817D90760F48091CD03909151
:1002A000CE039093D2038093D1031092D403109283
:1002B000D3032091D3033091D4038091D103909143
:1002C000D2032C173D0781F0FDD29093D203809387
:1002D000D1032091D3033091D4032F5F3F4F30934C
:1002E000D4032093D303E5CFDF91CF9108952F92CC
:1002F0003F924F925F926F927F928F929F92AF92B6
:10030000BF92CF92DF92EF92FF920F931F93CF9302
:10031000DF93CDB7DEB72B970FB6F894DEBF0FBED5
:10032000CDBF8D832A013B018901A091C10020919D
:10033000BF003091C0008090D7039090D803A09068
:10034000D903B090DA03481559056A057B0518F002
:1003500000E010E0CDC0A90160E070E049835A835D
:100360006B837C83B0E01FDD6B017C01C501B401B0
:1003700064197509860997096E837F838887998731
:10038000C301B201A701960153DD49015A01C7011A
:10039000B6011FDD461A570A680A790AC301B2017D
:1003A00029813A814B815C8143DD69017A01698150
:1003B0007A818B819C810DDD461A570A680A790A79
:1003C000C40161DF8091D1039091D203C2D16C0D41
:1003D0007D1D8E1D9F1D2ADF46EC52E05B874A87FC
:1003E000B8016A537D4F1B018E819F81A885B98515
:1003F00089839A83AB83BC830E811F8169817A8153
:10040000061B170B4A855B854215530509F442C04C
:100410008091BF009091C000A0E0B0E0481659065E
:100420006A067B0678F19D819130D1F0AFEFCA1A50
:10043000DA0AEA0AFA0A8091C10090E0A0E0B0E08E
:10044000C816D906EA06FB0680F0BFEF8B1A9B0A96
:10045000AB0ABB0AC40117DFC12CD12C760105C041
:1004600080E0BADE882311F373CF8091D10390919D
:10047000D2036FD16C0D7D1D8E1D9F1DD7DE412CCB
:10048000512C320149815A816B817C81452B462B4D
:10049000472B21F45D81513059F526C0F201EE530E
:1004A000FF4F6D81613021F4AA85BB858C9103C01B
:1004B0008081EA85FB85808349815A816B817C81BB
:1004C000415051096109710949835A836B837C83C7
:1004D0005FEF451A550A650A750A4A855B854F5FC5
:1004E0005F4F5B874A8788CF80E076DE811130CF0F
:1004F000C8012B960FB6F894DEBF0FBECDBFDF91BB
:10050000CF911F910F91FF90EF90DF90CF90BF9010
:10051000AF909F908F907F906F905F904F903F90A3
:100520002F90089543B3407F882371F024E030E09A
:10053000281B310981E090E0022E01C0880F0A9447
:10054000EAF79FE09827492B45BB08952FE0829F4B
:10055000C0011124805A9F4F0895E6ECF2E08A53BF
:100560009D4F1192E817F907E1F7089580E091E0B7
:10057000F4CFE62FF0E0EA53FD4F6AE039DC806308
:100580008083906391830895C59ABD9ABC98BB9A65
:10059000BA9A6C9A7098689A699A6B986D986E9AE4
:1005A0008EB10895779BFECF8FB908958FB9779B51
:1005B000FECF8FB108958FEFF9CFE6DFBA9AC29AD6
:1005C00008951F93CF93DF9300D000D0CDB7DEB74F
:1005D000182F4C835B836A837983EDDFECDFEBDFDD
:1005E000EADF812F8064E2DF7981872FDFDF6A8194
:1005F000862FDCDF5B81852FD9DF4C81842FD6DF0E
:1006000085E9D4DF1FEFD7DF115011F08F3FD9F309
:100610000F900F900F900F90DF91CF911F91089541
:10062000C298CFDFC29A08951F93CF93DF938FEFC5
:100630009FEFDC018093C2029093C302A093C40297
:10064000B093C5021092C6031FEFB5DF1150E9F752
:1006500040E050E0BA0180E0E3DF813011F01FEFAD
:1006600027C0CFEFDFEF40E050E0BA0187E3D8DFEB
:10067000813099F040E050E0BA0181E0D1DF811192
:10068000EECF40E050E0BA018BE3CADF40E052E039
:1006900060E070E080E1C4DF0BC040E050E0BA01F0
:1006A00089E2BEDF882331F321972097E1F6E2CF7C
:1006B000812FDF91CF911F910895CF93DF93AB01ED
:1006C000BC01C29889E0440F551F661F771F8A95A9
:1006D000D1F781E176DF81110FC06DDF8E3FE9F741
:1006E000C2ECD0E068DF899382E0C23CD807D1F742
:1006F00062DF61DFC29A80E0DF91CF910895CF93EE
:10070000DF93AB01BC01C29899E0440F551F661FEF
:10071000771F9A95D1F788E154DF811117C04BDF1D
:100720008EEF44DFC2ECD0E0899140DF82E0C23C32
:10073000D807D1F740DF3FDF3EDF982F9F7195301C
:1007400029F439DF8823E9F3C29A80E0DF91CF9161
:100750000895CF92DF92EF92FF92C090B900D090AF
:10076000BA00E090BB00F090BC00009769F4809163
:10077000BD009091BE00A7019601281B390B4109CD
:100780005109CA01B9010BC09C0122503109A09145
:10079000C100B0E008DB6C0D7D1D8E1D9F1DFF901C
:1007A000EF90DF90CF900895CF92DF92EF92FF927B
:1007B000CF9360E070E0CB0139DDC0918402C0903E
:1007C0008802D0908902E0908A02F0908B0280919A
:1007D000F8008634A1F48091F900813481F480918D
:1007E000FA00843561F48091FB00813341F48091FB
:1007F000FC00863321F4C12CD12C7601CEE0C70158
:10080000B60114DD8091D3009091D40024E0969538
:1008100087952A95E1F79093BE008093BD002091C3
:10082000D0003091D100820F931FE091D2006091EF
:10083000D8007091D900E69FA001E79F500D1124C8
:10084000840F951FB701A601480F591F611D711D27
:100850004093B9005093BA006093BB007093BC0002
:100860008091CF008093C1008091CD009091CE0007
:100870009093C0008093BF00C20ED31EE11CF11CF8
:10088000C092B500D092B600E092B700F092B800E6
:100890001092D0031092CF038FEF9FEF9093DE035F
:1008A0008093DD038C2F8D7F843029F081E0CE3062
:1008B00019F080E001C081E0CF91FF90EF90DF90D0
:1008C000CF900895CF92DF92EF92FF92BC0180E02B
:1008D00090E0660F771F881F991F2091BF0030910D
:1008E000C00040E050E0A4DA6B017C016091B500EB
:1008F0007091B6008091B7009091B800620F731F9D
:10090000841F951F93DCF601EE53FF4F8081918188
:100910008F3F2FEF920711F480E090E0FF90EF906F
:10092000DF90CF9008952F923F924F925F926F92F7
:100930007F928F929F92AF92BF92CF92DF92EF926F
:10094000FF920F931F93CF93DF93CDB7DEB7299715
:100950000FB6F894DEBF0FBECDBF1C01762E0091FE
:10096000CF031091D0038091DD039091DE0308172F
:10097000190731F01093DE030093DD031092DF03BB
:100980008091DF03882381F02091B3003091B4007F
:100990003E832D832215330580F02216330621F481
:1009A000813011F4772049F0C801D3DE4B015C019E
:1009B000612C1E821D82412C48C05090AB00C0901B
:1009C000AF00D090B000E090B100F090B200009184
:1009D000AC001091AD006090AE00412C4601570173
:1009E0003FEF831A930AA30AB30AC701B6011EDCBC
:1009F000A0E25A9EC00111248E539F4F9C838B838B
:100A0000BC01605E7F4FEB81FC81F081F987FF23A1
:100A100009F4D7C0F53EF1F48B819C8180969C83CC
:100A20008B835394605E7F4F90E15912ECCF011598
:100A3000110509F0B9C0262D30E08091BD009091DC
:100A4000BE002817390708F018C1639475016401C6
:100A5000512CC4CFDB0155978C918F3009F049C0E0
:100A60007720D1F28F2F90E001978F7099272DE09A
:100A7000289FA001299F500D11244A535D4F58878C
:100A80004F8380E090E0AB81BC81A80FB91F119625
:100A90003C91AF81B8853D93B887AF8302968A3089
:100AA000910589F7DA01159680E090E0EB81FC81F1
:100AB000E80FF91F36853D9302968C309105B1F70A
:100AC000DB0114978C91DA011B968C93DB01129752
:100AD0008C91FA018487F985F6FF03C0DA011D962F
:100AE0001C9229852F70213009F096CF442443941D
:100AF00093CF442061F02D813E812215330509F406
:100B000062C02F5F3F4F3E832D83412C85CF3985B7
:100B10003E3239F4DB015F979C91903211F484FDF1
:100B20007BCF83FD79CF2D813E8122153305A9F539
:100B30008B819C81A6ECB2E0FC012191CF012D9329
:100B4000F2E0A13DBF07C1F71092D1027720E9F191
:100B50001092D2028091D0028093D1028091CF0274
:100B60008093D0028091CE028093CF028091C60202
:100B70008E3219F08EE28093CE0286EC92E0DC0198
:100B8000FC012191CF01203211F02C931196FC0130
:100B900020812111F5CF1C9218C02D813E812F5F3D
:100BA0003F4F3E832D8338CF8091C100681608F4F3
:100BB0004CCFC80187DE8C01CCDD4B015C01612C80
:100BC00044CF80E003C082E001C081E0AB81BC8102
:100BD0005A962D913C915B973093CE032093CD0391
:100BE0003092D6032092D5035C964D915D916D9124
:100BF0007C915F974093D7035093D8036093D903B8
:100C00007093DA031B969C911B979093C70357969A
:100C10002C91579730E0322F222756969C91569769
:100C2000292B3093CB032093CA0359962C915997C3
:100C300030E0322F222758969C91292B3093C903FC
:100C40002093C8038823C9F02D813E813093B400DE
:100C50002093B3005092AB00C092AF00D092B0008E
:100C6000E092B100F092B2001093AD000093AC009E
:100C70006092AE008093DF0301C080E029960FB63A
:100C8000F894DEBF0FBECDBFDF91CF911F910F91C2
:100C9000FF90EF90DF90CF90BF90AF909F908F909C
:100CA0007F906F905F904F903F902F90089581E0DC
:100CB00006C082E004C088E002C08AE000C09EEE68
:100CC0009A95F1F79EEE9A95F1F78A95C1F70895F6
:100CD000CF93DF93CDB7DEB765970FB6F894DEBF3D
:100CE0000FBECDBFE0E6F0E085E58193EF3124E073
:100CF000F207D9F78AEA9AEADC018093E00390933D
:100D0000E103A093E203B093E303A09AA19AA29A0D
:100D1000A39AA49AA59AB898B9988A988B988C980F
:100D20008D988E988F98C09AC19A929A939A949A15
:100D3000959A969A979A5DE7C52ED12CE12CF12CC5
:100D40001092DC031A821C821092CC0380E690E0A1
:100D500091D88B8383B38F6385BB8EE2C4D9AD9862
:100D60008299FECF2ADC60DC8111FCCF709A6998F1
:100D7000689810926E0010927D0010928C00109274
:100D80009B001092AA001092DB03712C19828FEF46
:100D9000870D843070F4ADECB3E03FE0739EF0015A
:100DA0001124E05AFF4F8D91819383E0AC3DB80749
:100DB000D1F7FADC882319F000E010E015C0AD9AF5
:100DC000829BFECFBDCFFFEFAF1ABF0A21ED821687
:100DD00022E09206C1F0F40171904F01C5014AD89A
:100DE000781689F30F5F1F4F60E0C8019CDD8823F0
:100DF00009F44CC036EC832E32E0932E41E6A42E4B
:100E000040E0B42EE8CF8091CD039091CE03909333
:100E1000D2038093D1031092D4031092D30320E124
:100E200030E040E050E0BA0180E061DA81E0809398
:100E3000DB038091CB029091CA02892B813019F497
:100E400081E28093DB036091D7037091D803809196
:100E5000D9039091DA0360517109810991091091C8
:100E6000DB0315FF05C020E031E040E050E004C0A6
:100E700020E830E040E050E0DBD7213D3240410542
:100E8000510570F010681093DB030AC01092DB0369
:100E90008981811105C096B3937084E0891B898391
:100EA000898140DB712CAD9A812C912C540114E086
:100EB00001E0849B3AC090B3947E8091DC03981744
:100EC00009F182993DCF903A31F0903C09F45ECF20
:100ED000903679F407C08981823010F0815006C0C5
:100EE000198307C08981843018F48F5F898301C01A
:100EF000098389819A8B16DB9A899093DC0384EFAE
:100F000091E0DDDE91EA891690EF990699E1A90654
:100F1000B10428F083D9812C912C5401CACFEFEF72
:100F20008E1A9E0AAE0ABE0AC4CF40E064E070E0AA
:100F3000CE01099602D9182FBEDE849BFECFB7DE04
:100F4000112399F011FDAFCF8B81883229F081E018
:100F50009A81911180E08A838A81882319F08B819C
:100F60008A5F01C08EE2BFD89ECF29858FEC820FA9
:100F700030E08430A0F486B3837044E350E0481B33
:100F80005109898124173507E9F090E0C0962817A8
:100F90003907B1F496B3937084E0891B13C046B34C
:100FA000437084E790E0841B91092817390709F002
:100FB0007ACF8A858055843008F01DC380E3898705
:100FC00089858F70781611F1F4E0F71548F42FE059
:100FD000829FF0011124E05AFF4FADECB3E00FC047
:100FE000ADECB3E03FE0739EF0011124E05AFF4FF7
:100FF0009D91919393E0AC3DB907D1F7E8CF9191E2
:101000009D9323E0AC3DB207D1F7782E2091DB030E
:1010100020FF49CF8A85833509F490C0322F3B7F6A
:101020003093DB03823299F118F4813241F086C0AB
:10103000803509F494C0873509F491C07FC024FD40
:1010400005C080E198E6A1E0B0E004C080E098E649
:10105000A1E0B0E04091CC03433021F43460309300
:10106000DB037BC041110EC04091D7035091D803E0
:101070006091D9037091DA03481759076A077B0713
:1010800069F707C0423029F400E011E004C037FFDF
:10109000E5CF00E810E01092CC0326FDDFCF81E41D
:1010A00031D864DA8091DB0384FF04C0812C912C59
:1010B00054011DC020E1822E912CA12CB12C17C00F
:1010C0001C012D01813031E09307A105B10520F00D
:1010D000212C312C210133949101B501A40181E02F
:1010E00006D9892B99F0820C931CA41CB51C809105
:1010F000D7039091D803A091D903B091DA0388194E
:101100009909AA09BB09E1F620E001C021E0E6EC5B
:10111000F2E0C8018A539D4F3FEF3193E817F9077A
:10112000E1F7222349F01092C6021092C702809183
:10113000DB0384608093DB03C80173C0AD988A85AC
:101140009EEA980F923058F092EB980F923038F058
:101150008F3319F48B81883211F48EE422C681E436
:10116000D1D7EA85E03509F4F4C068F4EE34A9F08B
:1011700008F09AC0EF3309F096CE8B818093C602B7
:1011800081E090E04EC0E33509F406C2E73509F48A
:10119000E0C0E23509F087CEDCC08091DB03282F68
:1011A00020742E872090D7033090D8034090D90325
:1011B0005090DA03382F3072398B85FF34C000E04D
:1011C00011E0612F7727612C80E090E0520141010E
:1011D000E0E88E22FBE0F61570F52E85211126C081
:1011E0002091CE023091CF024091D0025091D10295
:1011F000281539054A055B05C9F42091CC0230E079
:101200002617370799F481E08093CE0283E5809317
:10121000CF0284E48093D00282E78093D1028CE0F5
:1012200090E0C8D740CE00E810E0CBCF2091C602B6
:101230002130A9F0612C9C012F5F3F4F2D8B3C8BFF
:101240006A8B7B8B17D6E62DF0E0EA53FD4F808347
:1012500063942D893C89C9016A897B89BBCF6093DE
:10126000CC020093CD023E85332341F08DE2280E5F
:1012700084EB381E411C511C0DE710E02989222304
:1012800031F030E8230E31E0331E411C511C98012F
:1012900040E050E0C201B101CBD53093C8022093A9
:1012A000C9024093CA02AFCF6CE070E086EC92E0D6
:1012B0006AD78111F8CDE091CC02F091CD02209156
:1012C000CA0230E040E050E02F5F3F4F4F4F5F4F8A
:1012D000A091C602B0E073D59B01AC01A091C802F9
:1012E000B0E0BA2FAA278091C902A80FB11D67D517
:1012F0009B01AC01AE2FB0E0BA2FAA27AF0FB11DF2
:101300005ED52091DB0324FD04C0605F7F4F8F4FCB
:101310009F4F25FF04C060587140810991090091D9
:10132000D7031091D8032091D9033091DA036017C5
:1013300071078207930711F083E008C081E0809372
:10134000CC03EF2BE13009F025C582E08093CC037C
:1013500021C51092CC030B851C850115110509F4DC
:101360001EC5F091DB03F6FD4FC00430110578F483
:10137000180181E0281A31083694322C222437943F
:101380002794412C512C70E8A72EB12C1AC0F5FFE0
:1013900004C0A12CBB24B39403C040E8A42EB12CFC
:1013A000980140E050E02450310941095109D5012C
:1013B00006D51B012C0190E8290E91E0391E411C35
:1013C000511CF4FD05C0F0E12F0E311C411C511CD5
:1013D000E23549F49501B201A10180E088D7892B5B
:1013E00009F4DDC4D7C0B50186EC92E0CCD68111FA
:1013F0005ACD8399D4C49501B201A10181E077D778
:10140000892B09F4CCC4C6C4E23541F060E870E031
:1014100086EC92E0B8D6811146CDC1C480E890E058
:101420009CD803301105A8F06091D7037091D803C0
:101430008091D9039091DA0364587F4F8F4F9F4F6B
:10144000A7019601F5D45901083681E0180719F56E
:1014500079C0C8019695982F8827979587958A5EB9
:101460009F4F2C81295F36ECA32E32E0B32E4C0126
:10147000EFEF8E1A9E0A2D8BFDD42D89873009F44B
:10148000822FF50181935F01F6E4AF16F3E0BF060A
:1014900059F2C401ECCF093681E0180709F057C0B2
:1014A00060E08091D5039091D6032D8B3C8B4A8BC5
:1014B0005B8B39DAA6ECB2E080E090E060E23C8938
:1014C0002D897D91EFEBE70FEA3120F0E0EDE70F9A
:1014D000EA3030F4E82FF0E0EA53FD4F70838F5F7D
:1014E000973011F09A3049F4981738F0E82FF0E06F
:1014F000EA53FD4F60838F5FF7CF9F5F9B3009F703
:10150000E1EDF2E0A6EDB2E082918E9392E0E63C4E
:10151000F907D1F7E6EDF2E083E0E634F80711F0E1
:101520001192FACF90E9A91692E0B90610F086E47C
:1015300001C082E48093C60281E791E09093CA02E1
:101540008093C9023093C8022093C70220C001379C
:10155000E1E01E07E0F09801ADE7B0E024D4AB0174
:10156000BC014D52544B610971092DE730E080E018
:10157000BED68D37910518F00F5F1F4F02C000E0F7
:1015800010E0109343030093440380934503A0E8C5
:10159000AA2EB12CC50145CE1092CC0380E18093D8
:1015A000C6028091DB0387FF03C090E99093C602D7
:1015B00085FF05C09091C60290629093C60282FF9B
:1015C00008C09091C60294609093C6028B7F80936E
:1015D000DB03839B05C08091C60288608093C602AE
:1015E0008FEF8093C70280EE8093C8021092C902E9
:1015F00084E090E016CE81E485D5F4E0F71560F440
:101600008A8590E0FC01E05CF109E034F10508F026
:10161000C4C3ED5EFF4F0994ADECB3E02FE0729EC2
:10162000F0011124E05AFF4F8D91819333E0AC3DDE
:10163000B307D1F7E5CF00E010E00AC297D78B855A
:101640009C85F2EDAF2EF2E0BF2E8C010F5F1F4F95
:1016500060E069D98823E1F082ECA81683E0B8063F
:1016600029F48091C6028093C20312C0D501E6EC32
:10167000F2E081918D9392E0E13DF907D1F78091FD
:10168000C703F5018387FCE0AF0EB11CC801DDCFB5
:10169000A6ECB2E0E2EDF2E081918D9323E0E33C31
:1016A000F207D1F781EF90E0A4C28B858A3F08F062
:1016B00074C38B831A82FFDA83E424D5EFE07E2E95
:1016C0004BCC8B858C83D9C2E5EBF0E0A6ECB2E085
:1016D00081918D9330E0E23CF307D1F7EDECF3E03C
:1016E000A3EDB2E081918D9383E0EC3DF807D1F753
:1016F0008CE190E07EC28091DB038093C60281E0A2
:1017000090E077C28B859C8524D86093C602709345
:10171000C7028093C8029093C90284E090E069C236
:1017200064E070E086EC92E02ED5811163C2609196
:10173000C6027091C7028091C8029091C9026D8360
:101740007E838F83988772D598C26D817E818F81C9
:1017500098856CD5B0DA83E4D5D4ADDA60E072E078
:1017600082EC90E0B1D4182F60E072E082EC90E05F
:10177000D1D4812F16C08D809E80AF80B884C501E2
:10178000B40154D540E160E072E082EC90E0D5D441
:101790008A8B93DA8A89882331F0C501B40146D552
:1017A0008EE4B0D427C281E4ADD480E015D5811198
:1017B000F4C263C27B84772009F45FC26DE6862E93
:1017C00060E0962E76ECA72E72E0B72E8401802F73
:1017D0008819871540F4C8014DD3F50181935F0145
:1017E0000F5F1F4FF4CF872D03C218D564DA83E44F
:1017F00089D48B858111DDCAA3CAEB85E53008F059
:10180000CCC22FE0E29FF0011124E05AFF4F868501
:101810008E7F868732C2EB85E53008F0BEC23FE09E
:10182000E39FF0011124E05AFF4F868580FD06C03A
:101830008EE090E092D68EE090E0DBC1ADECB3E0BC
:1018400081918D9383E0AC3DB807D1F79091D5039A
:101850008091D6039B878C8760E08B859C8563D8BD
:10186000B82E29C06BE070E08BEB93E08CD4811133
:10187000C1C18C85882309F400C28B85806F8A875B
:101880001C861B860B851C8560E0C8014CD888230C
:1018900009F490C1EBEBF3E0819181116CC123E07D
:1018A000E63CF207C9F78A85803F08F073C183EEF2
:1018B0008A87BB24B3944091C7034093D1028A85A1
:1018C000833E51F48091D5039091D6039093D30237
:1018D0008093D2021EE090C0853E09F08CC06091DA
:1018E000D7037091D8038091D9039091DA03609364
:1018F000D2027093D3028093D4029093D5022091A8
:10190000C803A090C9032093D602A092D7022091C9
:10191000CA033091CB033093D9022093D802EAED69
:10192000F2E020E2219332E0E83FF307D9F7487173
:1019300019F420E32093E30203EE12E06115710530
:101940008105910551F02AE030E040E050E070D28E
:101950006063F8016083B901CA0101501109F2E026
:10196000093D1F0759F78DE28093E9028093EC024D
:101970008AE38093F2028093F502A694AF86188AD8
:101980008F8598898454984F64E670E03DD2962FF5
:10199000182F6FE1892FEDD561E2812FEAD5809173
:1019A000C8039091C90345E0969587954A95E1F75C
:1019B00064E28F70DED58091C80367E28F71D9D55C
:1019C0008091CB036AE2869586958695D2D58091E3
:1019D000CA039091CB0355E0969587955A95E1F708
:1019E0006DE28F73C6D58091CA038F7160E3880F53
:1019F000C0D512E301C01CE0B11003C082E390E047
:101A0000ACD5812FF5C061E08B859C858CD7811189
:101A100003C080E090E008C0E6ECF2E080E090E0F7
:101A2000019621912111FCCF8F3F910509F030F4EF
:101A3000FC01EA53FD4F10820196F6CF2A85265EFF
:101A400080E091E002C0959587952A95E2F7D1C094
:101A500060E0C80168D7882319F00F5F1F4FF8CFE7
:101A60001093C7020093C60282E090E0C2C08B854B
:101A70008150843110F084E18B875B84A090CF0388
:101A8000B090D003612C3FE2732E60E080E090E0E4
:101A90004AD7882309F443C08091C70384FF3FC01D
:101AA0008091C6028E32D9F58091C7028E32B9F587
:101AB000511007C0E62DF0E0EA53FD4F8FE380831D
:101AC0002EC05A948090CF039090D0038091CD0384
:101AD0009091CE039093D0038093CF0300E010E069
:101AE00060E0C80120D7882381F28091CD039091D6
:101AF000CE038816990681F424EF620EE62DF0E0FD
:101B0000EA53FD4F7192A6ECB2E08D91819332E0E1
:101B1000A13DB307D1F7B9CF0F5F1F4FE1CFB0920F
:101B2000D003A092CF03262D30E080E090E0B901F1
:101B30006A537D4FFB01E80FF91F4081FC01EA5316
:101B4000FD4F40830196AC01420F531F4115514098
:101B500089F7219519F41092C60221E0E22FF0E0F6
:101B6000EA53FD4F10822F5FC9F78B85FCE08F9FF2
:101B7000C00111243EC0DF01A65FB1099C91891705
:101B800009F48DCE14C060E08B859C85CCD688236B
:101B900009F403C12091C7038091CD039091CE0336
:101BA00024FF6EC09093D0038093CF03DFC00F5FFC
:101BB0001F4F6ACE8A85803F08F0EFC039CE8B85F3
:101BC000853020F096B3937084E0891B8983AAD472
:101BD00054C08B859C85FE013196E90FF11DA6EC62
:101BE000B2E09D01280F922F21912D939A13FCCFE3
:101BF00090E0E0D22FE0722E56C960E080E090E0E5
:101C000092D6811104C08B85811112CE36C080918D
:101C1000C70384FFF8CF8091C6028E32A1F780916E
:101C2000C7028E3281F70091CF031091D0038091CB
:101C3000CD039091CE039093D0038093CF038B85F7
:101C4000882309F3A12CB12C60E0C5016CD6882350
:101C5000D1F28091CD039091CE030817190709F4B2
:101C600026CE3FEFA31AB30AEFCF1092D003109203
:101C7000CF0360E080E090E056D69FE0792E8AC0E6
:101C80009093D2038093D1031092D4031092D30384
:101C90008091CE02813409F041C08091CF02843519
:101CA00009F061C08091D002823509F05CC020E16A
:101CB00030E040E050E0BA0180E019D381E0809349
:101CC000DB038091CB029091CA02892B813019F4F9
:101CD00081E28093DB036091D7037091D8038091F8
:101CE000D9039091DA03605171098109910910912A
:101CF000DB0315FF05C020E031E040E050E004C008
:101D000020E830E040E050E093D0213D32404105F2
:101D1000510560F110681093DB0328C0883519F570
:101D20008091CF028634F9F48091D0028434D9F4C2
:101D300081E18093DB038091D7039091D803A09138
:101D4000D903B091DA038130E8E69E07E1E0AE07FF
:101D5000B10560F081309840A240B10510F481E9EE
:101D600003C081E301C081EC8093DB03EA85EF705F
:101D7000E53008F082CFADECB3E02FE0E29FF00158
:101D80001124E05AFF4F8D91819333E0AC3DB307AE
:101D9000D1F773CF90D783E404C08FE0782E8BD730
:101DA00085E4B0D180C8A29FB001B39FC001A39FBA
:101DB00001D0B29F700D811D1124911D0895F3DF94
:101DC000A59F900DB49F900DA49F800D911D11248F
:101DD0000895DB018F939F93F2DFBF91AF91A29F94
:101DE000800D911DA39F900DB29F900D1124089519
:101DF000991B79E004C0991F961708F0961B881F5D
:101E00007A95C9F780950895AA1BBB1B51E107C0BD
:101E1000AA1FBB1FA617B70710F0A61BB70B881F7A
:101E2000991F5A95A9F780959095BC01CD01089509
:101E3000A1E21A2EAA1BBB1BFD010DC0AA1FBB1FCE
:101E4000EE1FFF1FA217B307E407F50720F0A21B40
:101E5000B30BE40BF50B661F771F881F991F1A94AD
:101E600069F760957095809590959B01AC01BD01D7
:101E7000CF010895E199FECF9FBB8EBBE09A9927D1
:081E80008DB30895F894FFCF23
:00000001FF
